:020000040800F2
:10000000F04B0020210200087D1300089F12000819
:10001000791300082703000861150008000000009C
:10002000000000000000000000000000890100083E
:100030002B03000800000000CD010008291400086F
:100040003B0200083B0200083B0200083B0200089C
:100050003B0200083B0200083B0200083B0200088C
:100060003B0200083B0200083B0200083B0200087C
:100070003B0200083B0200083B0200083B0200086C
:100080003B0200083B0200083B0200083B0200085C
:100090003B0200083B0200083B0200083B0200084C
:1000A0003B0200083B0200083B0200083B0200083C
:1000B0003B0200083B020008A11400083B020008B4
:1000C0003B0200083B0200083B0200083B0200081C
:1000D0003B0200083B0200083B0200083B0200080C
:1000E0003B0200083B0200083B02000800F002F857
:1000F00000F03AF80AA090E8000C82448344AAF188
:100100000107DA4501D100F02FF8AFF2090EBAE885
:100110000F0013F0010F18BFFB1A43F0010318473B
:10012000EC2000000C210000103A24BF78C878C1F0
:10013000FAD8520724BF30C830C144BF04680C60ED
:10014000704700000023002400250026103A28BF35
:1001500078C1FBD8520728BF30C148BF0B60704739
:100160001FB51FBD10B510BD00F0A4F81146FFF774
:10017000F7FF01F013FA00F0C2F803B4FFF7F2FF43
:1001800003BC00F0C9F80000224B19680868B0E809
:10019000F00F80F30988BFF36F8F4FF0000080F3FA
:1001A00011884EF00D0E70470000000006480068F0
:1001B000006880F3088862B661B6BFF34F8FBFF363
:1001C0006F8F00DF00BF00BF08ED00E0EFF3098094
:1001D000BFF36F8F0F4B1A6820E9F00F106008B55E
:1001E0004FF0BF0080F31188BFF34F8FBFF36F8FC5
:1001F00001F0D8FD4FF0000080F31188BDE8084001
:1002000019680868B0E8F00F80F30988BFF36F8FB2
:10021000704700BF20000020EFF30580704700000A
:100220000948804709480047FEE7FEE7FEE7FEE78A
:10023000FEE7FEE7FEE7FEE7FEE7FEE704480549C6
:10024000054A064B704700009F140008ED000008A7
:10025000F0450020F04B0020F0470020F047002040
:100260004FF0000200B5134694469646203922BF4F
:10027000A0E80C50A0E80C50B1F12001BFF4F7AF9A
:10028000090728BFA0E80C5048BF0CC05DF804EB7C
:10029000890028BF40F8042B08BF704748BF20F8EA
:1002A000022B11F0804F18BF00F8012B70477047E8
:1002B00070477047754600F02BF8AE46050069465A
:1002C000534620F00700854618B020B5FFF7B6FF6B
:1002D000BDE820404FF000064FF000074FF0000847
:1002E0004FF0000B21F00701AC46ACE8C009ACE8C8
:1002F000C009ACE8C009ACE8C0098D46704710B52C
:100300000446AFF300802046BDE81040FFF735BF3C
:10031000004870479045002001491820ABBEFEE719
:1003200026000200704700BFFEE7704772B600BFAC
:10033000FEE700001CB50648012100238022CDE91C
:10034000001004A1064801F091FD01F0EDFC1CBD78
:100350000000002053746172745F5461736B00007D
:10036000A913000810B502210A4800F0B9F970B9C4
:10037000142000F011F800BF0221064800F0B0F987
:100380000028F9D0142000F007F8012010BD00204B
:10039000FCE70000000C014070B5044600F0B8F91D
:1003A00006462546681C10B104480078054400BF85
:1003B00000F0AEF9801BA842FAD370BD18000020EF
:1003C0002DE9F8470346002294466EE14FF00108FC
:1003D00008FA02F4D1F8008008EA0400A0427DD1B6
:1003E000DFF8DCA2D1F80480A8EB0A09D0453AD0A6
:1003F00014DCB8F1030F50D009DCB8F1000F31D094
:10040000B8F1010F1CD0B8F1020F49D120E0B8F1CA
:10041000110F18D0B8F1120F42D11EE0B9F5881FA4
:1004200025D006DCB9F5803F20D0B9F5801F37D143
:100430001AE0B9F5001F18D0B9F5041F30D117E044
:10044000D1F80CC02DE0D1F80C8008F1040C28E0A4
:10045000D1F80C8008F1080C23E0D1F80C8008F1E9
:100460000C0C1EE000BF00BF00BF00BF00BF00BFFC
:10047000D1F80880B8F1000F02D14FF0040C0BE066
:10048000D1F80880B8F1010F03D14FF0080C1C61BE
:1004900002E04FF0080C5C6103E04FF0000C00E05C
:1004A00000BF00BFFF2801D8984601E003F104080F
:1004B0004646FF2802D84FEA820803E0A2F1080866
:1004C0004FEA88084746D6F800804FF00F0909FA2E
:1004D00007F928EA09080CFA07F900E088E048EA79
:1004E0000908C6F80080D1F8048008F08058B8F1F7
:1004F000805F7DD100BFDFF8CC81D8F8188048F04C
:100500000108DFF8C091C9F81880C846D8F81880EB
:1005100008F00108CDF8008000BF00BF4FEAB938ED
:100520004FEA920958F829504FEA82784FEA187931
:100530004FF00F0808FA09F825EA0805DFF8888166
:10054000434502D14FF0000816E0DFF880814345B3
:1005500002D14FF001080FE0DFF87481434502D16A
:100560004FF0020808E0DFF86C81434502D14FF0FC
:10057000030801E04FF004084FEA82794FEA197945
:1005800008FA09F848EA0505DFF84C814FEA9209B4
:1005900048F82950D1F8048008F48018B8F5801F75
:1005A0000AD1DFF83881D8F8008048EA0008DFF87F
:1005B0002C91C9F8008009E0DFF82081D8F800808C
:1005C00028EA0008DFF81491C9F80080D1F8048007
:1005D00008F40018B8F5001F10D1DFF8008108F109
:1005E0000408D8F8008048EA0008DFF8F09000E03E
:1005F0005AE009F10409C9F800800DE0DFF8DC8059
:1006000008F10408D8F8008028EA0008DFF8CC9048
:1006100009F10409C9F80080D1F8048008F4003811
:10062000B8F5003F0ED1DFF8B480A8F10408D8F87F
:10063000008048EA0008DFF8A490A9F10409C9F88D
:1006400000800DE0DFF89480A8F10408D8F800805D
:1006500028EA0008DFF88490A9F10409C9F80080AD
:10066000D1F8048008F48038B8F5803F0ED1DFF867
:100670006C80A8F10808D8F8008048EA0008DFF884
:100680005C90A9F10809C9F800800DE0DFF84C8002
:10069000A8F10808D8F8008028EA0008DFF83C90A4
:1006A000A9F10809C9F80080521CD1F8008028FA85
:1006B00002F8B8F1000F7FF489AEBDE8F8870000BA
:1006C000000011100010024000080140000C014021
:1006D00000100140001401400800014008040140DE
:1006E000024693680B400BB1012000E000207047E8
:1006F00010B5C26821EA020302EA010443EA044396
:10070000036110BD0AB1016101E00B040361704790
:10071000014800687047000010000020034800688E
:100720000349097808440149086070471000002017
:100730001800002010B50848006840F01000064975
:100740000860032000F0E2F8012000F007F800F054
:100750005FF8002010BD0000002002402DE9F041AC
:1007600088B004460027B846002600BF2348C06969
:1007700040F004002149C8610846C06900F0040047
:10078000019000BF00BF02A903A800F099F9069FDD
:100790001FB900F0BDF9054602E000F0B9F94500C7
:1007A0001748B5FBF0F0A0F101081648164908609B
:1007B00040F2E7311448C160C0F8048000210161B3
:1007C0008160816100F020FC064696B90E4800F079
:1007D0004FFC06466EB91E2000F04AF8102C07D2D6
:1007E000002221461E2000F053F80848046000E073
:1007F0000126304608B0BDE8F0810000001002403C
:1008000040420F000008004080000020140000203B
:1008100008B500BF1448806940F0010012498861A2
:100820000846806900F00100009000BF00BF00BFD3
:100830000846C06940F08050C8610846C06900F0B1
:100840008050009000BF00BF00220F21901E00F0DA
:100850001FF800BF0549486820F0E06040F00070D4
:10086000486000BF08BD00000010024000000140C9
:1008700001460846002809DB00F01F0301229A40C8
:1008800043099B0003F1E023C3F8002100BF704738
:100890002DE9F05F80460D461646002700F062FE07
:1008A000074639462A46334601F00700C0F1070AD9
:1008B000BAF1040F02D94FF0040A01E0C0F1070AAF
:1008C000D14600F1040ABAF1070F02D24FF0000A34
:1008D00001E0A0F1030AD4464FF0010A0AFA09FA2E
:1008E000AAF1010A0AEA020A0AFA0CFA4FF0010B0D
:1008F0000BFA0CFBABF1010B0BEA030B4AEA0B04FE
:100900002146404600F036FEBDE8F09F00BF00F0F3
:100910000702064B19684FF6FF031940044B0B43BF
:1009200043EA0221014B196000BF70470CED00E063
:100930000000FA0570B504460D460CB9012070BDE3
:100940005A48006800F00700A8420ED257480068D5
:1009500020F007002843554908600846006800F069
:100960000700A84201D00120E9E7207800F002004A
:1009700002281DD1207800F00400042805D14C483D
:10098000406840F4E0604A494860207800F0080080
:10099000082805D14648406840F460504449486002
:1009A0004348406820F0F000A1680843404948608F
:1009B000207800F0010078B36068012806D13C4837
:1009C000006800F4003090B90120B8E760680228A0
:1009D00006D13748006800F0007040B90120AEE74A
:1009E0003348006800F0020008B90120A7E730484A
:1009F000406820F00300616808432D494860FFF714
:100A000087FE064609E0FFF783FE801B41F288312E
:100A1000884202D9032092E707E02548406800F0A9
:100A20000C006168B0EB810FEDD12048006800F048
:100A30000700A8420ED91D48006820F0070028438F
:100A40001A4908600846006800F00700A84201D073
:100A5000012074E7207800F00400042807D114482E
:100A6000406820F4E060E16808431149486020785C
:100A700000F00800082808D10D48406820F46050B4
:100A8000216940EAC1000A49486000F051F808496C
:100A90004968C1F30311074A515CC8400649086020
:100AA00006480068FFF75AFE002048E70020024091
:100AB00000100240F22100081C0000201400002059
:100AC0000F2202600D4A526802F0030242600B4A94
:100AD000526802F0F0028260084A526802F4E06252
:100AE000C260064A526802F46052D2080261044AA7
:100AF000126802F007020A6070470000001002400E
:100B00000020024001480068704700001C000020DF
:100B100000B5FFF7F7FF04494968C1F30221034A12
:100B2000515CC84000BD00000010024002220008D5
:100B300070B500210022002400230020134D6968B5
:100B400001F00C05F5B1042D02D0082D19D101E0FA
:100B50000F4819E00F4DC1F38346AB5D01F48035BA
:100B600055B10A4D6D68C5F340450B4E725D084D99
:100B70005D43B5FBF2F402E0084D03FB05F42046AB
:100B800002E000BF024800BF00BF70BD001002407D
:100B900000127A00E0210008F021000800093D0061
:100BA000F8B504460CB90120F8BD207800F001002A
:100BB000002878D0F848406800F00C0004280CD0D9
:100BC000F548406800F00C00082811D1F248406850
:100BD00000F48030B0F5803F0AD1EF48006800F49F
:100BE000003000285FD0606800285CD10120DBE77E
:100BF00000BF6068B0F5803F06D1E748006840F468
:100C00008030E549086028E0606858B9E24800682B
:100C100020F48030E04908600846006820F4802015
:100C200008601AE06068B0F5A02F0BD1DA480068C0
:100C300040F48020D84908600846006840F48030BD
:100C400008600AE0D448006820F48030D249086087
:100C50000846006820F48020086000BF606888B102
:100C6000FFF756FD054606E0FFF752FD401B6428DE
:100C700001D9032098E7C848006800F40030002834
:100C8000F2D010E0FFF744FD054606E0FFF740FD17
:100C9000401B642801D9032086E7BF48006800F4A0
:100CA00000300028F2D1207800F00200022857D14D
:100CB000B948406800F00C0050B1B748406800F0F7
:100CC0000C00082818D1B448406800F4803098B966
:100CD000B148006800F0020020B12069012801D06D
:100CE000012061E7AC48006820F0F800616940EA43
:100CF000C100A949086033E02069E8B10120A74993
:100D00000860FFF705FD054606E0FFF701FD401B03
:100D1000022801D9032047E79F48006800F002003D
:100D20000028F2D09C48006820F0F800616940EA91
:100D3000C1009949086013E0002098490860FFF756
:100D4000E7FC054606E0FFF7E3FC401B022801D95B
:100D5000032029E79048006800F002000028F2D143
:100D6000207800F0080008282DD1A069B8B1012032
:100D70008B490860FFF7CCFC054606E0FFF7C8FC8E
:100D8000401B022801D903200EE78348406A00F087
:100D900002000028F2D0012000F0F2FA13E0002057
:100DA0007F490860FFF7B4FC054606E0FFF7B0FC9A
:100DB000401B022801D90320F6E67748406A00F07C
:100DC00002000028F2D1207800F00400042873D13A
:100DD00000277148C06900F0805070B900BF6E48AC
:100DE000C06940F080506C49C8610846C06900F095
:100DF0008050009000BF00BF01276A48006800F4DF
:100E00008070B0B96748006840F480706549086038
:100E1000FFF77EFC054606E0FFF77AFC401B6428DE
:100E200001D90320C0E65F48006800F48070002804
:100E3000F2D000BFE068012806D15748006A40F0B0
:100E400001005549086227E0E06858B95248006A35
:100E500020F00100504908620846006A20F00400B2
:100E6000086219E0E06805280BD14B48006A40F0A1
:100E70000400494908620846006A40F0010008621F
:100E80000AE04548006A20F001004349086208462C
:100E9000006A20F00400086200BFE068A0B1FFF71C
:100EA00037FC054609E0FFF733FC401B41F288316F
:100EB000884202D9032077E622E03748006A00F032
:100EC00002000028EFD012E0FFF722FC054608E000
:100ED000FFF71EFC401B41F28831884201D90320F4
:100EE00062E62D48006A00F002000028F0D1012FD0
:100EF00005D12948C06920F080502749C86100BF4A
:100F0000E069C8B32448406800F00C00082860D0AD
:100F1000E069022848D1002020490866FFF7F8FB65
:100F2000054606E0FFF7F4FB401B022801D9032029
:100F30003AE61948006800F000700028F2D1206AF3
:100F4000B0F5803F07D11448406820F40030A16814
:100F5000084311494860D4E9080108430E4949682B
:100F600021F4741108430C49486001200B490866BC
:100F7000FFF7CEFB054607E03DE0FFF7C9FB401B4E
:100F8000022801D903200FE60348006800F0007032
:100F90000028F2D02FE00000001002400000424282
:100FA0008004424200700040002014490866FFF7A8
:100FB000AFFB054606E0FFF7ABFB401B022801D95B
:100FC0000320F1E50E48006800F000700028F2D11F
:100FD00011E0E069012800D1E6E50948466806F419
:100FE0008031206A814204D106F47011606A814226
:100FF00001D00120D8E50020D6E5000000004242E3
:10100000001002407047704710B504460CB901202B
:1010100010BD94F83D0028B9002084F83C0020461B
:1010200000F025F8022084F83D00211D206800F022
:101030003FFA012084F8460000BF84F83E000121F9
:101040003F200155402001554120015500BF00BF00
:10105000012084F8420043200155442001554520D9
:10106000015500BF012084F83D000020D0E7704703
:10107000014691F83D00012801D00120704702206F
:1010800081F83D000868C06840F001000B68D86036
:10109000124B086898420BD00868B0F1804F07D017
:1010A0000F4B0868984203D00E4B086898420CD149
:1010B0000868806800F00702062A0CD008680068FB
:1010C00040F001000B68186005E00868006840F017
:1010D00001000B6818600020D0E70000002C0140E0
:1010E0000004004000080040704710B50446206826
:1010F0000069C0F34000D8B12068C068C0F3400068
:10110000B0B16FF0020021680861012020772068EB
:10111000806900F0030018B12046FFF7E5FF05E005
:10112000204600F0ADF8204600F0ABF80020207714
:1011300020680069C0F38000D8B12068C068C0F39F
:101140008000B0B16FF004002168086102202077B0
:101150002068806900F4407018B12046FFF7C4FF92
:1011600005E0204600F08CF8204600F08AF80020C8
:10117000207720680069C0F3C000D8B12068C0683B
:10118000C0F3C000B0B16FF008002168086104200E
:1011900020772068C06900F0030018B12046FFF7EF
:1011A000A3FF05E0204600F06BF8204600F069F848
:1011B0000020207720680069C0F30010D8B12068B3
:1011C000C068C0F30010B0B16FF010002168086172
:1011D000082020772068C06900F4407018B12046CC
:1011E000FFF782FF05E0204600F04AF8204600F0B5
:1011F00048F8002020772068006900F0010058B10D
:101200002068C06800F0010030B16FF00100216873
:101210000861204600F036F820680069C0F3C0106D
:1012200058B12068C068C0F3C01030B16FF08000C2
:10123000216808612046FFF7E5FE20680069C0F3D9
:10124000801058B12068C068C0F3801030B16FF0D2
:10125000400021680861204600F020F820680069FD
:10126000C0F3401058B12068C068C0F3401030B1DE
:101270006FF02000216808612046FFF7C4FE10BD12
:101280007047704710B5044603492068884201D171
:10129000FFF744FA10BD000000080040704700BF8F
:1012A000FEE7000010B504210348FFF721FA4FF4D0
:1012B000FA7000F0B5FC10BD0008014010B508211F
:1012C0000348FFF715FA4FF4FA7000F0A9FC10BDBF
:1012D0000008014000B585B0002001900290039005
:1012E000049000BF2148806940F020001F498861B8
:1012F0000846806900F02000009000BF00BF00BFDA
:101300000846806940F0040088610846806900F062
:101310000400009000BF00BF00BF0846806940F095
:10132000080088610846806900F00800009000BF4E
:1013300000BF00220C210E48FFF7E4F90C200190B9
:1013400001200290002003900220049001A9084887
:10135000FFF736F802200190002002900120039050
:1013600001A90448FFF72CF805B000BD00100240A9
:1013700000080140000C014000BFFEE700BFFEE78F
:1013800008B508490968C9084FF47A72B1FBF2F14F
:101390004143009100BF00BF00994A1E00920029FE
:1013A000F9D108BD1C0000201CB500F0E5FB124877
:1013B000022100238022CDE9001010A1114800F085
:1013C00055FD1148032100238022CDE900100FA113
:1013D000104800F04BFD1048042100238022CDE985
:1013E00000100EA10F4800F041FD00F0D7FB0020D7
:1013F00000F030FC1CBD0000040000205461736B41
:101400003100000025150008080000205461736BAE
:10141000320000002D1500080C0000205461736B91
:10142000330000003515000810B500F053FD012809
:1014300001D000F001FD10BD00B58FB0282105A836
:10144000FEF70EFF14216846FEF70AFF0120059003
:1014500000040690002007900120099002200C90C3
:10146000C1030D914FF4E0110E9105A8FFF798FB11
:1014700008B1FEF75BFF0F200090022001900020D2
:1014800002904FF48060039000200490022168468F
:10149000FFF750FA08B1FEF749FF0FB000BD7047E3
:1014A00010B50248FFF721FE10BD000080000020AB
:1014B00010B50268184B984208D0B0F1804F05D0A3
:1014C000164B984202D0164B984203D122F070027C
:1014D0004B681A43104B984208D0B0F1804F05D0AA
:1014E0000E4B984202D00E4B984203D122F4407228
:1014F000CB681A4322F080034C6943EA040202607D
:101500008B68C3620B688362034B984201D10B69FD
:1015100003630123436110BD002C0140000400401F
:101520000008004001E0FFF7BDFEFCE701E0FFF727
:10153000C5FEFCE711E0FEF715FF012809D10748B9
:10154000006830B10548006800F084FB00200349C2
:1015500008604FF4FA7000F063FBECE70400002031
:1015600000BFFEE702480068C0F302207047000099
:101570000CED00E010B5002804DB0A07130E054A45
:10158000135406E00A07140E034A00F00F031B1F52
:10159000D45410BD00E400E018ED00E0FFF7CAF8F5
:1015A000FFF74AFFFFF796FEFEF7C4FE00BFFEE717
:1015B0002DE9F04105460E46264807682648006892
:1015C000001D00F08FFA50B92348006890F82C10E5
:1015D0000120884021490968814320480160681C36
:1015E000D8B9D6B11E4948681B49096888601A49AC
:1015F00082680968CA6018490968091D82685160D3
:1016000015490968091D8160154A134909684A612D
:1016100011460968491C11601AE07C190E480068DF
:101620004460BC4207D20C480168091D0D4800689F
:1016300000F07CFA0CE008480168091D0A480068BF
:1016400000F074FA09480068844201D20748046037
:10165000BDE8F08134000020200000203800002088
:101660007C010020280000202400002050000020E1
:1016700010B5044600F080FA2F480068401C2E493F
:1016800008602E48006840B92C480460084600688D
:1016900001280DD100F016F90AE02948006838B990
:1016A00026480068C06AE16A884201D8234804607D
:1016B00024480068401C2349086094F82C1001203D
:1016C00088402149096808431F490860E16A01EB25
:1016D00081011E4A02EB81014868A0608268E260D5
:1016E000211D826851608160E16A01EB8101174A26
:1016F00002EB81026261E16A01EB8101134A52F857
:101700002110491CE26A02EB8202104B43F82210BE
:1017100000F044FA0A48006868B108480068C06AE6
:10172000E16A884207D24FF0805009490860BFF350
:101730004F8FBFF36F8F10BD3000002020000020BE
:101740003C0000204C00002038000020C800002091
:1017500004ED00E010B516E000F00EFA0C48C06889
:10176000C468201D00F0BEF90A480068401E0949FF
:10177000086009480068401E0749086000F00EFA3A
:10178000204600F00BF8044800680028E4D110BDA2
:1017900068010020300000202C00002010B5044615
:1017A000206B00F00BFA204600F008FA10BD000094
:1017B00030B54FF48843154800F007042CB1C01D24
:1017C00020F00700114C041B1B1B0246104C22602A
:1017D00000240F4D6C60D018083820F007000D4C25
:1017E000206000240B4D2D686C600A4D2D682C6024
:1017F0001146441A4C60074C24680C60064D4C6836
:101800002C60064D4C682C6030BD0000900100201B
:10181000640000206C000020740000207000002094
:1018200000BFFFF797FF064800680128F9D94FF07D
:10183000805004490860BFF34F8FBFF36F8FF0E70C
:10184000C800002004ED00E02DE9FF5F80460E4651
:101850009146DDE90E7A109CA9F10100216B01EBA4
:10186000800B2BF0070B7EB1002507E0715D04F1C2
:1018700034004155705D00B902E06D1C102DF5D3A8
:1018800000BF002143200155052F00D30427E76244
:10189000201D00F048F904F1180000F044F924611B
:1018A000C7F10500A061646241465846039A00F002
:1018B00007F92060BAF1000F01D0CAF80040BDE876
:1018C000FF9F000010B5002407E004EB84010F4ADD
:1018D00002EB810000F01AF9641C052CF5D30C48CA
:1018E00000F014F90B4800F011F90B4800F00EF964
:1018F0000A4800F00BF90A4800F008F904480949C1
:10190000086004480849086010BD0000C8000020B5
:101910002C0100204001002054010020680100201B
:101920007C010020240000202800002010B5014682
:10193000164800E0006803688B42FBD30246436808
:1019400013448B4204D143684C68234443600146EE
:101950000A464B6813440468A34211D10C4C036837
:101960002468A34208D04B680468646823444B6031
:1019700003681B680B6005E0054B1B680B6001E00A
:1019800003680B60884200D0016010BD6400002035
:101990006C00002009480068006808B9012000E0D8
:1019A000002020B14FF0FF300549086005E00348F2
:1019B0000068C06800680249086070472400002081
:1019C0005000002000BFBF2080F31188BFF34F8F6D
:1019D000BFF36F8F00BF00BFFEE700002DE9F047A7
:1019E00005464FF0000900F0D5F93048006808B905
:1019F000FFF7DEFE75B105F00700C0F11008C8F171
:101A0000FF30A84201D2012000E0002008B945447F
:101A100000E00025012000EBE570002841D0002DFA
:101A20003FD02348006885423BD8224E30460468A8
:101A300001E0264624686068A84202D22068002897
:101A4000F7D11A48006884422BD0306800F10809A9
:101A5000206830606068401B102807D967196068EB
:101A6000401B786065603846FFF760FF104960688A
:101A70000968081A0E490860084600680E49096896
:101A8000884203D20A4800680B490860606840F049
:101A9000004060600020206008480068401C074942
:101AA000086000F0EFFA4846BDE8F0876C000020BF
:101AB00070000020640000207400002078000020E6
:101AC000001F4FF080730360001F21F001030360CB
:101AD000001F034B03601438026020387047000079
:101AE000C519000801460A69D1E901309860D1E9B9
:101AF000010358605068884201D188685060002016
:101B000008611068401E10601068704700F10801FD
:101B100041604FF0FF31816000F10801C160016157
:101B200000210160704700210161704710B5024635
:101B30000B685C1C0CB9106907E002F1080000E0BA
:101B40004068446824689C42FAD944684C604C68F8
:101B5000A160886041600A611468641C146010BD53
:101B600042684A6093688B6093685960916008612D
:101B700003685B1C0360704700BFBF2080F31188BF
:101B8000BFF34F8FBFF36F8F00BF03480068401C47
:101B900001490860704700006000002006480068A6
:101BA000401E054908600846006820B9002080F3FF
:101BB000118800BF00BF70476000002070B5064666
:101BC0003546E6B1083D2C466068C00FB8B12068C4
:101BD000A8B9606820F00040606000F0DBF80849B8
:101BE000606809680844064908602046FFF79EFEC1
:101BF00004480068401C0349086000F043FA70BDC7
:101C0000700000207C00002000204FF0E0210861DF
:101C10008861024848610720086170473F19010048
:101C200070B50446002544B100F0B4F80021204608
:101C3000FFF7BEFC00F026FA05463DB94FF0805094
:101C400003490860BFF34F8FBFF36F8F70BD000073
:101C500004ED00E070B50546FFF78EFF15B9294881
:101C6000006800E028460446201DFFF73BFF78B9D6
:101C7000E06A00EB8000244951F8200040B994F854
:101C80002C10012088402149096881431F480160C8
:101C9000A06A18B104F11800FFF724FF1C4800687F
:101CA000401C1B49086017480068844209D1211D67
:101CB0001848FFF755FF18480068401C164908608F
:101CC00006E016480068401E14490860FFF762FEEF
:101CD000FFF764FF0B480068844202D02046FFF7FC
:101CE0005DFD0F48006858B106480068844207D17E
:101CF0004FF080500B490860BFF34F8FBFF36F8FD9
:101D000070BD000020000020C80000203800002026
:101D10004C000020680100202C0000203000002032
:101D20003C00002004ED00E01CB5124800210B46E9
:101D30008022CDE9001010A1114800F097F8044668
:101D4000012C14D100BFBF2080F31188BFF34F8F47
:101D5000BFF36F8F00BF4FF0FF300A4908600120CA
:101D60000949086000200949086000F04BF808485C
:101D700000681CBD5400002049444C450000000090
:101D800021180008500000203C00002034000020F2
:101D90005800002002480068401C01490860704754
:101DA0005C0000201248006818B101201149086049
:101DB0001DE000200F4908600F480068B0FA80F06D
:101DC000C0F11F0101EB81020C4B03EB8200426862
:101DD0005268426000F108024368934202D14268AF
:101DE000526842604268D268054B1A6000BF704773
:101DF0005C0000204400002038000020C8000020C3
:101E00002000002010B50A48006840F47F0008490F
:101E100008600846006840F07F400860FFF7F4FE65
:101E2000002004490860FEF7C1F9002010BD000041
:101E300020ED00E06000002010B500BFBF2080F35F
:101E40001188BFF34F8FBFF36F8F00BF00F052F8C0
:101E500018B14FF080500449086000BF002080F3A3
:101E6000118800BF10BD000004ED00E02DE9FF4F18
:101E700085B0804689461746DDE912ABB800FFF70A
:101E8000ADFD064676B14C20FFF7A8FD04462CB107
:101E90004C212046FEF7E4F9266304E03046FFF7C4
:101EA0008DFE00E000247CB10020CDE900ABCDE93F
:101EB00002403A4649464046089BFFF7C5FC20468B
:101EC000FFF7D6FB012501E04FF0FF35284609B0AA
:101ED000BDE8F08F0549096809B9012005E004490A
:101EE000096809B9022000E0002070473C0000208A
:101EF0005C0000202DE9F0410027574800680028C9
:101F00007ED156480068451C544805608DB9544838
:101F1000D0F8008053480068514908605148C0F823
:101F2000008051480068401C4F490860FFF732FDAF
:101F300000BF4E480068854276D300BF484800681D
:101F4000006808B9012000E0002020B14FF0FF3008
:101F50004649086067E042480068C068C46866682F
:101F6000B54202D2414806605DE06069D4E90212E0
:101F70008A60D4E902214A60211D42688A4201D167
:101F8000E1684160002262610168491E0160A06A47
:101F900098B1A06AD4E907128A60D4E907214A609F
:101FA00004F1180142688A4201D1216A416000228D
:101FB000A2620168491E016000BF94F82C10012044
:101FC00088402B490968084329490860E16A01EB08
:101FD0008101284A02EB81014868A0608268E260C2
:101FE000211D826851608160E16A01EB8101214A13
:101FF00002EB81026261E16A01EB81011D4A00E0AE
:1020000022E052F82110491CE26A02EB8202194BCD
:1020100043F822101849E06A0968C96A88428DD9D4
:1020200001278BE700E000BF13480068C06A00EB9F
:102030008000104951F82000012800D901270F48DD
:10204000006800B1012704E00D480068401C0C49FD
:1020500008603846BDE8F0815C00002034000020B4
:10206000240000202800002048000020500000200C
:1020700038000020C800002020000020440000207C
:102080004000002070B500240026FFF775FD4B4886
:102090000068401E494908600846006800287DD154
:1020A00047480068002879D05BE04648C068C468AB
:1020B000A06AD4E907128A60D4E907214A6004F1D2
:1020C000180142688A4201D1216A41600022A2625D
:1020D0000168491E01606069D4E902128A60D4E98E
:1020E00002214A60211D42688A4201D1E1684160B3
:1020F000002262610168491E016094F82C100120E1
:1021000088403149096808432F490860E16A01EBBA
:1021100081012E4A02EB81014868A0608268E2607A
:10212000211D826851608160E16A01EB8101274ACB
:1021300002EB81026261E16A01EB8101234A52F8FC
:102140002110491CE26A02EB8202204B43F8221064
:102150001F49E06A0968C96A884202D301201D4903
:1021600008601848006808B9012000E00020002835
:102170009BD00CB1FFF70EFC1748056865B100BF96
:10218000FFF7B8FE10B10120124908606D1E002D46
:10219000F6D10020104908600E4800E009E0006810
:1021A00038B1012630070D490860BFF34F8FBFF3E8
:1021B0006F8FFFF7F3FC304670BD00005C0000201D
:1021C000300000205401002038000020C80000200A
:1021D00020000020440000204000002004ED00E02A
:1021E00002030405060708090A0B0C0D0E0F101058
:1021F00001020000000000000000010203040607C5
:102200000809000000000102030400002C2200085D
:10221000000000208000000028010008AC22000817
:1022200080000020704B0000440100080000000006
:10223000000000000000000000000000000000009E
:1022400010000000010000000024F4000000000065
:10225000000000000000000000000000000000007E
:10226000000000000000000000000000000000006E
:10227000000000000000000000000000000000005E
:10228000000000000400000000000000AAAAAAAAA2
:10229000000000000000000000000000000000003E
:0C22A00000000000000000000000000032
:04000005080000ED02
:00000001FF
