:020000040800F2
:1000000078180020210200087D1400089F130008C2
:100010007914000817040008911600080000000079
:10002000000000000000000000000000890100083E
:100030001B04000800000000CD010008591500084D
:100040003B0200083B0200083B0200083B0200089C
:100050003B0200083B0200083B0200083B0200088C
:100060003B0200083B0200083B0200083B0200087C
:100070003B0200083B0200083B0200083B0200086C
:100080003B0200083B0200083B0200083B0200085C
:100090003B0200083B0200083B0200083B0200084C
:1000A0003B0200083B0200083B0200083B0200083C
:1000B0003B0200083B020008D11500083B02000883
:1000C0003B0200083B0200083B0200083B0200081C
:1000D0003B0200083B0200083B0200083B0200080C
:1000E0003B0200083B0200083B02000800F002F857
:1000F00000F03AF80AA090E8000C82448344AAF188
:100100000107DA4501D100F02FF8AFF2090EBAE885
:100110000F0013F0010F18BFFB1A43F0010318473B
:10012000E8290000082A0000103A24BF78C878C1E6
:10013000FAD8520724BF30C830C144BF04680C60ED
:10014000704700000023002400250026103A28BF35
:1001500078C1FBD8520728BF30C148BF0B60704739
:100160001FB51FBD10B510BD00F01BF91146FFF7FC
:10017000F7FF01F0ABFA00F039F903B4FFF7F2FF33
:1001800003BC00F041F90000224B19680868B0E890
:10019000F00F80F30988BFF36F8F4FF0000080F3FA
:1001A00011884EF00D0E70470000000006480068F0
:1001B000006880F3088862B661B6BFF34F8FBFF363
:1001C0006F8F00DF00BF00BF08ED00E0EFF3098094
:1001D000BFF36F8F0F4B1A6820E9F00F106008B55E
:1001E0004FF0BF0080F31188BFF34F8FBFF36F8FC5
:1001F00002F082F84FF0000080F31188BDE808405B
:1002000019680868B0E8F00F80F30988BFF36F8FB2
:10021000704700BF20000020EFF30580704700000A
:100220000948804709480047FEE7FEE7FEE7FEE78A
:10023000FEE7FEE7FEE7FEE7FEE7FEE704480549C6
:10024000054A064B70470000CF150008ED00000876
:1002500078120020781800207814002078140020EC
:10026000032A40F2308010F0030C00F0158011F8E2
:10027000013BBCF1020F624498BF11F801CB00F8BA
:10028000013B38BF11F8013BA2F1040298BF00F80E
:1002900001CB38BF00F8013B11F0030300F04F80A1
:1002A000083AC0F0088051F8043B083A51F804CBF2
:1002B000A0E80810F5E7121D5CBF51F8043B40F8B8
:1002C000043BAFF30080D20724BF11F8013B11F8C3
:1002D00001CB48BF11F8012B24BF00F8013B00F807
:1002E00001CB48BF00F8012B70474FF0000200B56A
:1002F000134694469646203922BFA0E80C50A0E849
:100300000C50B1F12001BFF4F7AF090728BFA0E8F6
:100310000C5048BF0CC05DF804EB890028BF40F8C2
:10032000042B08BF704748BF20F8022B11F0804F04
:1003300018BF00F8012B704770477047704710B521
:10034000203AC0F00B80B1E81850203AA0E81850CD
:10035000B1E81850A0E81850BFF4F5AF5FEA027C8E
:1003600024BFB1E81850A0E8185044BF18C918C0FD
:10037000BDE810405FEA827C24BF51F8043B40F89E
:10038000043B08BF7047D20728BF31F8023B48BF83
:1003900011F8012B28BF20F8023B48BF00F8012BC1
:1003A0007047754600F02CF8AE4605006946534686
:1003B00020F00700854618B020B5FFF73FFFBDE8E5
:1003C00020404FF000064FF000074FF000084FF0BC
:1003D000000B21F00701AC46ACE8C009ACE8C0094D
:1003E000ACE8C009ACE8C0098D46704710B50446BA
:1003F000AFF300802046BDE81040FFF7BEBE00000E
:10040000004870471812002001491820ABBEFEE7D3
:1004100026000200704700BFFEE7704772B600BFBB
:10042000FEE700000EB50848084901220023CDE987
:1004300000210290802206A1084802F0E3F8084952
:10044000086001F003FF0EBD94020020940000201C
:1004500053746172745F5461736B0000A9140008D7
:100460000000002010B502210A4800F0B9F970B967
:10047000142000F011F800BF0221064800F0B0F986
:100480000028F9D0142000F007F8012010BD00204A
:10049000FCE70000000C014070B5044600F0B8F91C
:1004A00006462546681C10B104480078054400BF84
:1004B00000F0AEF9801BA842FAD370BD18000020EE
:1004C0002DE9F8470346002294466EE14FF00108FB
:1004D00008FA02F4D1F8008008EA0400A0427DD1B5
:1004E000DFF8DCA2D1F80480A8EB0A09D0453AD0A5
:1004F00014DCB8F1030F50D009DCB8F1000F31D093
:10050000B8F1010F1CD0B8F1020F49D120E0B8F1C9
:10051000110F18D0B8F1120F42D11EE0B9F5881FA3
:1005200025D006DCB9F5803F20D0B9F5801F37D142
:100530001AE0B9F5001F18D0B9F5041F30D117E043
:10054000D1F80CC02DE0D1F80C8008F1040C28E0A3
:10055000D1F80C8008F1080C23E0D1F80C8008F1E8
:100560000C0C1EE000BF00BF00BF00BF00BF00BFFB
:10057000D1F80880B8F1000F02D14FF0040C0BE065
:10058000D1F80880B8F1010F03D14FF0080C1C61BD
:1005900002E04FF0080C5C6103E04FF0000C00E05B
:1005A00000BF00BFFF2801D8984601E003F104080E
:1005B0004646FF2802D84FEA820803E0A2F1080865
:1005C0004FEA88084746D6F800804FF00F0909FA2D
:1005D00007F928EA09080CFA07F900E088E048EA78
:1005E0000908C6F80080D1F8048008F08058B8F1F6
:1005F000805F7DD100BFDFF8CC81D8F8188048F04B
:100600000108DFF8C091C9F81880C846D8F81880EA
:1006100008F00108CDF8008000BF00BF4FEAB938EC
:100620004FEA920958F829504FEA82784FEA187930
:100630004FF00F0808FA09F825EA0805DFF8888165
:10064000434502D14FF0000816E0DFF880814345B2
:1006500002D14FF001080FE0DFF87481434502D169
:100660004FF0020808E0DFF86C81434502D14FF0FB
:10067000030801E04FF004084FEA82794FEA197944
:1006800008FA09F848EA0505DFF84C814FEA9209B3
:1006900048F82950D1F8048008F48018B8F5801F74
:1006A0000AD1DFF83881D8F8008048EA0008DFF87E
:1006B0002C91C9F8008009E0DFF82081D8F800808B
:1006C00028EA0008DFF81491C9F80080D1F8048006
:1006D00008F40018B8F5001F10D1DFF8008108F108
:1006E0000408D8F8008048EA0008DFF8F09000E03D
:1006F0005AE009F10409C9F800800DE0DFF8DC8058
:1007000008F10408D8F8008028EA0008DFF8CC9047
:1007100009F10409C9F80080D1F8048008F4003810
:10072000B8F5003F0ED1DFF8B480A8F10408D8F87E
:10073000008048EA0008DFF8A490A9F10409C9F88C
:1007400000800DE0DFF89480A8F10408D8F800805C
:1007500028EA0008DFF88490A9F10409C9F80080AC
:10076000D1F8048008F48038B8F5803F0ED1DFF866
:100770006C80A8F10808D8F8008048EA0008DFF883
:100780005C90A9F10809C9F800800DE0DFF84C8001
:10079000A8F10808D8F8008028EA0008DFF83C90A3
:1007A000A9F10809C9F80080521CD1F8008028FA84
:1007B00002F8B8F1000F7FF489AEBDE8F8870000B9
:1007C000000011100010024000080140000C014020
:1007D00000100140001401400800014008040140DD
:1007E000024693680B400BB1012000E000207047E7
:1007F00010B5C26821EA020302EA010443EA044395
:10080000036110BD0AB1016101E00B04036170478F
:10081000014800687047000010000020034800688D
:100820000349097808440149086070471000002016
:100830001800002010B50848006840F01000064974
:100840000860032000F0E2F8012000F007F800F053
:100850005FF8002010BD0000002002402DE9F041AB
:1008600088B004460027B846002600BF2348C06968
:1008700040F004002149C8610846C06900F0040046
:10088000019000BF00BF02A903A800F099F9069FDC
:100890001FB900F0BDF9054602E000F0B9F94500C6
:1008A0001748B5FBF0F0A0F101081648164908609A
:1008B00040F2E7311448C160C0F8048000210161B2
:1008C0008160816100F020FC064696B90E4800F078
:1008D0004FFC06466EB91E2000F04AF8102C07D2D5
:1008E000002221461E2000F053F80848046000E072
:1008F0000126304608B0BDE8F0810000001002403B
:1009000040420F00000800405C100020140000204E
:1009100008B500BF1448806940F0010012498861A1
:100920000846806900F00100009000BF00BF00BFD2
:100930000846C06940F08050C8610846C06900F0B0
:100940008050009000BF00BF00220F21901E00F0D9
:100950001FF800BF0549486820F0E06040F00070D3
:10096000486000BF08BD00000010024000000140C8
:1009700001460846002809DB00F01F0301229A40C7
:1009800043099B0003F1E023C3F8002100BF704737
:100990002DE9F05F80460D461646002700F07AFEEE
:1009A000074639462A46334601F00700C0F1070AD8
:1009B000BAF1040F02D94FF0040A01E0C0F1070AAE
:1009C000D14600F1040ABAF1070F02D24FF0000A33
:1009D00001E0A0F1030AD4464FF0010A0AFA09FA2D
:1009E000AAF1010A0AEA020A0AFA0CFA4FF0010B0C
:1009F0000BFA0CFBABF1010B0BEA030B4AEA0B04FD
:100A00002146404600F04EFEBDE8F09F00BF00F0DA
:100A10000702064B19684FF6FF031940044B0B43BE
:100A200043EA0221014B196000BF70470CED00E062
:100A30000000FA0570B504460D460CB9012070BDE2
:100A40005A48006800F00700A8420ED257480068D4
:100A500020F007002843554908600846006800F068
:100A60000700A84201D00120E9E7207800F0020049
:100A700002281DD1207800F00400042805D14C483C
:100A8000406840F4E0604A494860207800F008007F
:100A9000082805D14648406840F460504449486001
:100AA0004348406820F0F000A1680843404948608E
:100AB000207800F0010078B36068012806D13C4836
:100AC000006800F4003090B90120B8E7606802289F
:100AD00006D13748006800F0007040B90120AEE749
:100AE0003348006800F0020008B90120A7E7304849
:100AF000406820F00300616808432D494860FFF713
:100B000087FE064609E0FFF783FE801B41F288312D
:100B1000884202D9032092E707E02548406800F0A8
:100B20000C006168B0EB810FEDD12048006800F047
:100B30000700A8420ED91D48006820F0070028438E
:100B40001A4908600846006800F00700A84201D072
:100B5000012074E7207800F00400042807D114482D
:100B6000406820F4E060E16808431149486020785B
:100B700000F00800082808D10D48406820F46050B3
:100B8000216940EAC1000A49486000F051F808496B
:100B90004968C1F30311074A515CC840064908601F
:100BA00006480068FFF75AFE002048E70020024090
:100BB00000100240EE2A00081C0000201400002053
:100BC0000F2202600D4A526802F0030242600B4A93
:100BD000526802F0F0028260084A526802F4E06251
:100BE000C260064A526802F46052D2080261044AA6
:100BF000126802F007020A6070470000001002400D
:100C00000020024001480068704700001C000020DE
:100C100000B5FFF7F7FF04494968C1F30221034A11
:100C2000515CC84000BD000000100240FE2A0008D0
:100C300070B500210022002400230020134D6968B4
:100C400001F00C05F5B1042D02D0082D19D101E0F9
:100C50000F4819E00F4DC1F38346AB5D01F48035B9
:100C600055B10A4D6D68C5F340450B4E725D084D98
:100C70005D43B5FBF2F402E0084D03FB05F42046AA
:100C800002E000BF024800BF00BF70BD001002407C
:100C900000127A00DC2A0008EC2A000800093D0056
:100CA000F8B504460CB90120F8BD207800F0010029
:100CB000002878D0F848406800F00C0004280CD0D8
:100CC000F548406800F00C00082811D1F24840684F
:100CD00000F48030B0F5803F0AD1EF48006800F49E
:100CE000003000285FD0606800285CD10120DBE77D
:100CF00000BF6068B0F5803F06D1E748006840F467
:100D00008030E549086028E0606858B9E24800682A
:100D100020F48030E04908600846006820F4802014
:100D200008601AE06068B0F5A02F0BD1DA480068BF
:100D300040F48020D84908600846006840F48030BC
:100D400008600AE0D448006820F48030D249086086
:100D50000846006820F48020086000BF606888B101
:100D6000FFF756FD054606E0FFF752FD401B6428DD
:100D700001D9032098E7C848006800F40030002833
:100D8000F2D010E0FFF744FD054606E0FFF740FD16
:100D9000401B642801D9032086E7BF48006800F49F
:100DA00000300028F2D1207800F00200022857D14C
:100DB000B948406800F00C0050B1B748406800F0F6
:100DC0000C00082818D1B448406800F4803098B965
:100DD000B148006800F0020020B12069012801D06C
:100DE000012061E7AC48006820F0F800616940EA42
:100DF000C100A949086033E02069E8B10120A74992
:100E00000860FFF705FD054606E0FFF701FD401B02
:100E1000022801D9032047E79F48006800F002003C
:100E20000028F2D09C48006820F0F800616940EA90
:100E3000C1009949086013E0002098490860FFF755
:100E4000E7FC054606E0FFF7E3FC401B022801D95A
:100E5000032029E79048006800F002000028F2D142
:100E6000207800F0080008282DD1A069B8B1012031
:100E70008B490860FFF7CCFC054606E0FFF7C8FC8D
:100E8000401B022801D903200EE78348406A00F086
:100E900002000028F2D0012000F0F2FA13E0002056
:100EA0007F490860FFF7B4FC054606E0FFF7B0FC99
:100EB000401B022801D90320F6E67748406A00F07B
:100EC00002000028F2D1207800F00400042873D139
:100ED00000277148C06900F0805070B900BF6E48AB
:100EE000C06940F080506C49C8610846C06900F094
:100EF0008050009000BF00BF01276A48006800F4DE
:100F00008070B0B96748006840F480706549086037
:100F1000FFF77EFC054606E0FFF77AFC401B6428DD
:100F200001D90320C0E65F48006800F48070002803
:100F3000F2D000BFE068012806D15748006A40F0AF
:100F400001005549086227E0E06858B95248006A34
:100F500020F00100504908620846006A20F00400B1
:100F6000086219E0E06805280BD14B48006A40F0A0
:100F70000400494908620846006A40F0010008621E
:100F80000AE04548006A20F001004349086208462B
:100F9000006A20F00400086200BFE068A0B1FFF71B
:100FA00037FC054609E0FFF733FC401B41F288316E
:100FB000884202D9032077E622E03748006A00F031
:100FC00002000028EFD012E0FFF722FC054608E0FF
:100FD000FFF71EFC401B41F28831884201D90320F3
:100FE00062E62D48006A00F002000028F0D1012FCF
:100FF00005D12948C06920F080502749C86100BF49
:10100000E069C8B32448406800F00C00082860D0AC
:10101000E069022848D1002020490866FFF7F8FB64
:10102000054606E0FFF7F4FB401B022801D9032028
:101030003AE61948006800F000700028F2D1206AF2
:10104000B0F5803F07D11448406820F40030A16813
:10105000084311494860D4E9080108430E4949682A
:1010600021F4741108430C49486001200B490866BB
:10107000FFF7CEFB054607E03DE0FFF7C9FB401B4D
:10108000022801D903200FE60348006800F0007031
:101090000028F2D02FE00000001002400000424281
:1010A0008004424200700040002014490866FFF7A7
:1010B000AFFB054606E0FFF7ABFB401B022801D95A
:1010C0000320F1E50E48006800F000700028F2D11E
:1010D00011E0E069012800D1E6E50948466806F418
:1010E0008031206A814204D106F47011606A814225
:1010F00001D00120D8E50020D6E5000000004242E2
:10110000001002407047704710B504460CB901202A
:1011100010BD94F83D0028B9002084F83C0020461A
:1011200000F025F8022084F83D00211D206800F021
:1011300057FA012084F8460000BF84F83E000121E0
:101140003F200155402001554120015500BF00BFFF
:10115000012084F8420043200155442001554520D8
:10116000015500BF012084F83D000020D0E7704702
:10117000014691F83D00012801D00120704702206E
:1011800081F83D000868C06840F001000B68D86035
:10119000124B086898420BD00868B0F1804F07D016
:1011A0000F4B0868984203D00E4B086898420CD148
:1011B0000868806800F00702062A0CD008680068FA
:1011C00040F001000B68186005E00868006840F016
:1011D00001000B6818600020D0E70000002C0140DF
:1011E0000004004000080040704710B50446206825
:1011F0000069C0F34000D8B12068C068C0F3400067
:10120000B0B16FF0020021680861012020772068EA
:10121000806900F0030018B12046FFF7E5FF05E004
:10122000204600F0ADF8204600F0ABF80020207713
:1012300020680069C0F38000D8B12068C068C0F39E
:101240008000B0B16FF004002168086102202077AF
:101250002068806900F4407018B12046FFF7C4FF91
:1012600005E0204600F08CF8204600F08AF80020C7
:10127000207720680069C0F3C000D8B12068C0683A
:10128000C0F3C000B0B16FF008002168086104200D
:1012900020772068C06900F0030018B12046FFF7EE
:1012A000A3FF05E0204600F06BF8204600F069F847
:1012B0000020207720680069C0F30010D8B12068B2
:1012C000C068C0F30010B0B16FF010002168086171
:1012D000082020772068C06900F4407018B12046CB
:1012E000FFF782FF05E0204600F04AF8204600F0B4
:1012F00048F8002020772068006900F0010058B10C
:101300002068C06800F0010030B16FF00100216872
:101310000861204600F036F820680069C0F3C0106C
:1013200058B12068C068C0F3C01030B16FF08000C1
:10133000216808612046FFF7E5FE20680069C0F3D8
:10134000801058B12068C068C0F3801030B16FF0D1
:10135000400021680861204600F020F820680069FC
:10136000C0F3401058B12068C068C0F3401030B1DD
:101370006FF02000216808612046FFF7C4FE10BD11
:101380007047704710B5044603492068884201D170
:10139000FFF744FA10BD000000080040704700BF8E
:1013A000FEE7000010B504210348FFF721FA4FF4CF
:1013B000FA7000F07FFE10BD0008014010B5082152
:1013C0000348FFF715FA4FF4FA7000F073FE10BDF2
:1013D0000008014000B585B0002001900290039004
:1013E000049000BF2148806940F020001F498861B7
:1013F0000846806900F02000009000BF00BF00BFD9
:101400000846806940F0040088610846806900F061
:101410000400009000BF00BF00BF0846806940F094
:10142000080088610846806900F00800009000BF4D
:1014300000BF00220C210E48FFF7E4F90C200190B8
:1014400001200290002003900220049001A9084886
:10145000FFF736F80220019000200290012003904F
:1014600001A90448FFF72CF805B000BD00100240A8
:1014700000080140000C014000BFFEE700BFFEE78E
:1014800008B508490968C9084FF47A72B1FBF2F14E
:101490004143009100BF00BF00994A1E00920029FD
:1014A000F9D108BD1C0000200EB500F089FD1848D8
:1014B000184902220023CDE900210290802216A1C2
:1014C000174801F09FF81749086017481749032289
:1014D0000023CDE900210290802215A1164801F0D9
:1014E00091F8164908601648164904220023CDE9F0
:1014F00000210290802214A1154801F083F81549BB
:10150000086000F06FFD002000F0EEFD0EBD000051
:10151000E0040020E00200205461736B3100000001
:1015200055160008040000202C0700202C05002080
:101530005461736B320000005D1600080800002043
:1015400078090020780700205461736B3300000095
:10155000651600080C00002010B501F07FF8012886
:1015600001D000F013FF10BD00B58FB0282105A8F1
:10157000FEF7BBFE14216846FEF7B7FE012005907A
:1015800000040690002007900120099002200C9092
:10159000C1030D914FF4E0110E9105A8FFF780FBF8
:1015A00008B1FEF73BFF0F200090022001900020C1
:1015B00002904FF48060039000200490022168465E
:1015C000FFF738FA08B1FEF729FF0FB000BD7047EA
:1015D00010B50248FFF709FE10BD00005C100020A6
:1015E00010B50268184B984208D0B0F1804F05D072
:1015F000164B984202D0164B984203D122F070024B
:101600004B681A43104B984208D0B0F1804F05D078
:101610000E4B984202D00E4B984203D122F44072F6
:10162000CB681A4322F080034C6943EA040202604B
:101630008B68C3620B688362034B984201D10B69CC
:1016400003630123436110BD002C014000040040EE
:101650000008004001E0FFF7A5FEFCE701E0FFF70E
:10166000ADFEFCE711E0FEF7FDFE012809D10748B9
:10167000006830B10548006800F036FD00200349DD
:1016800008604FF4FA7000F015FDECE7040000204C
:1016900000BFFEE702480068C0F302207047000068
:1016A0000CED00E010B5002804DB0A07130E054A14
:1016B000135406E00A07140E034A00F00F031B1F21
:1016C000D45410BD00E400E018ED00E0FFF7B2F8DC
:1016D000FFF74AFFFFF77EFEFEF7A4FE00BFFEE71E
:1016E0002DE9F04105460E46264807682648006861
:1016F000001D00F003FC50B92348006890F82C103E
:101700000120884021490968814320480160681C04
:10171000D8B9D6B11E4948681B49096888601A497A
:1017200082680968CA6018490968091D82685160A1
:1017300015490968091D8160154A134909684A61FC
:1017400011460968491C11601AE07C190E480068AE
:101750004460BC4207D20C480168091D0D4800686E
:1017600000F008FC0CE008480168091D0A48006800
:1017700000F000FC09480068844201D20748046078
:10178000BDE8F08134000020200000203800002057
:1017900058110020280000202400002050000020C4
:1017A00010B5044600F00CFC2F480068401C2E4980
:1017B00008602E48006840B92C480460084600685C
:1017C00001280DD100F052F90AE02948006838B923
:1017D00026480068C06AE16A884201D8234804604C
:1017E00024480068401C2349086094F82C1001200C
:1017F00088402149096808431F490860E16A01EBF4
:1018000081011E4A02EB81014868A0608268E260A3
:10181000211D826851608160E16A01EB8101174AF4
:1018200002EB81026261E16A01EB8101134A52F825
:101830002110491CE26A02EB8202104B43F822108D
:1018400000F0D0FB0A48006868B108480068C06A28
:10185000E16A884207D24FF0805009490860BFF31F
:101860004F8FBFF36F8F10BD30000020200000208D
:101870003C0000204C00002038000020A410002074
:1018800004ED00E008B500F09BFB0E480068A8B925
:101890000D4800F05FFB0D4800F05CFB0A480C4966
:1018A00008600A480B49086000200B4B0B4A0C21CA
:1018B0000090052000F084FD0249086000F092FBD2
:1018C00008BD0000680000206C110020801100207D
:1018D000600000206400002094110020DC11002032
:1018E00010B516E000F06CFB0C48C068C468201D01
:1018F00000F004FB0A480068401E094908600948D6
:101900000068401E0749086000F06CFB204600F0AC
:1019100020F8044800680028E4D110BD44110020DC
:10192000300000202C00002070B504460D46206CCD
:1019300070B1216CE0680144E160D4E90210884292
:1019400001D32168E1602846226CE168FEF788FC3B
:1019500070BD10B5044694F8490030B9206B00F012
:1019600051FB204600F04EFB06E094F849000128A8
:1019700002D1204600F046FB10BD00000146084A97
:10198000126812680AB9012200E000220A600A689F
:1019900022B9034A1268D268106800E0002070473C
:1019A0006000002000BFFFF79BFF06480068012889
:1019B000F9D94FF0805004490860BFF34F8FBFF34F
:1019C0006F8FF0E7A410002004ED00E02DE9F04156
:1019D00006460D4617469846069C0DB9246000E061
:1019E0002760E66325640121204600F009FDBDE87B
:1019F000F0812DE9FF5F80460E469146DDE90E7AC3
:101A0000109CA9F10100216B01EB800B2BF0070B5F
:101A10007EB1002507E0715D04F134004155705D31
:101A200000B902E06D1C102DF5D300BF002143204A
:101A30000155052F00D30427E762201D00F097FA17
:101A400004F1180000F093FA2461C7F10500A061C9
:101A5000646241465846039A00F03EFA2060BAF1AB
:101A6000000F01D0CAF80040BDE8FF9F10B5002468
:101A700007E004EB84010F4A02EB810000F06AFAF0
:101A8000641C052CF5D30C4800F064FA0B4800F0F8
:101A900061FA0B4800F05EFA0A4800F05BFA0A4867
:101AA00000F058FA044809490860044808490860E9
:101AB00010BD0000A4100020081100201C110020FF
:101AC0003011002044110020581100202400002073
:101AD0002800002010B50146164800E000680368A1
:101AE0008B42FBD30246436813448B4204D14368C4
:101AF0004C682344436001460A464B68134404681B
:101B0000A34211D10C4C03682468A34208D04B684F
:101B10000468646823444B6003681B680B6005E03D
:101B2000054B1B680B6001E003680B60884200D026
:101B3000016010BD78000020800000202DE9F041F8
:101B400004460D4616461F464FF0000865602461A6
:101B5000B5420CD8F01BA169884202D34FF00108AE
:101B600011E0211D0948006800F004FA0BE0BE42B4
:101B700004D2BD4202D34FF0010804E0211D044805
:101B8000006800F0F7F94046BDE8F08164000020ED
:101B90006000002070B5054600F012FAA86B08B985
:101BA000012400E0002400F01DFA204670BD000072
:101BB00070B505460E460E480068C068C468201D12
:101BC00000F09CF994F8240000F0040028B132469B
:101BD0002946204600F0C4F805E094F8240000F0FF
:101BE000FE0084F824002046216A884770BD00006A
:101BF000600000207FB56EE0019800286BDB039C3D
:101C0000606908B9012000E0002010B9201D00F033
:101C100075F9684600F0D0F8054601980A2858D2B0
:101C2000DFE800F05705072E364706082F3700BFBC
:101C300000BF00BF94F8240040F0010084F82400A5
:101C40000298A269811803462A462046FFF776FFCC
:101C5000A8B194F8240000F0040038B10298A269F9
:101C600081182A46204600F07BF805E094F824000D
:101C700000F0FE0084F824002046216A884729E00D
:101C800000BF94F8240000F0FE0084F8240021E056
:101C900000BF94F8240040F0010084F8240002986A
:101CA000A061A06941192B462A462046FFF746FF4E
:101CB00010E094F8240000F0020018B9204600F06B
:101CC000A1F905E094F8240000F0FE0084F8240057
:101CD00000E000BF00BF002201A90348006800F037
:101CE000DFFB002888D17FBD68000020F8B50546DD
:101CF0000C4600F0F9FA684600F05EF806460098D7
:101D000020BB44B9B54206D800F00AFE3146284649
:101D1000FFF74EFF1CE03CB10E480068006808B9B0
:101D2000012000E000200446A91B22460A48006862
:101D300000F09AF900F0F4FD50B94FF080500749D7
:101D40000860BFF34F8FBFF36F8F01E000F0E8FD35
:101D5000F8BD0000640000206800002004ED00E0F1
:101D600070B504460D46164604E0A06905442046B9
:101D7000216A8847A06941192B4632462046FFF761
:101D8000DDFE0028F1D170BD09480068006808B97F
:101D9000012000E0002020B14FF0FF30054908602D
:101DA00005E003480068C0680068024908607047A1
:101DB000240000205000002070B5044600F05EFCB6
:101DC000054607480068854204D200F00BF8012060
:101DD000206001E00020206001480560284670BDB9
:101DE0007000002070B508E00D480068C068046805
:101DF0004FF0FF312046FFF7DBFE0948006800681E
:101E000008B9012000E000200028EDD00448056852
:101E100004480068024908600248056070BD00007F
:101E2000600000206400002000BFBF2080F3118804
:101E3000BFF34F8FBFF36F8F00BF00BFFEE708B542
:101E400000BF6846FFF79AFD044620460099FFF759
:101E50004DFFFFF7CFFEF4E770B5044600F0B0F891
:101E600094F9455010E0606A08B9012000E00020B4
:101E700038B904F1240000F0CFFC18B100F0AAF941
:101E800000E003E0681E45B2002DECDC00BFFF203F
:101E900084F8450000F0A6F800F092F894F9445058
:101EA00010E0206908B9012000E0002048B904F1E1
:101EB000100000F0B1FC08B100F08CF9681E45B2CA
:101EC00000E001E0002DECDC00BFFF2084F84400BE
:101ED00000F088F870BD0000001F4FF080730360B1
:101EE000001F21F001030360001F034B036014383F
:101EF0000260203870470000291E000801460A6968
:101F0000D1E901309860D1E90103586050688842F6
:101F100001D188685060002008611068401E106080
:101F200010687047034B0360034B0B608023136002
:101F300070470000C4090020100A0020034B036012
:101F4000034B0B604FF4807313607047100C00203C
:101F50005C0C002000F1080141604FF0FF3181600E
:101F600000F10801C160016100210160704700219A
:101F70000161704710B502460B685C1C0CB9106912
:101F800007E002F1080000E04068446824689C42D1
:101F9000FAD944684C604C68A160886041600A616D
:101FA0001468641C146010BD42684A6093688B60BA
:101FB000936859609160086103685B1C0360704717
:101FC00000BFBF2080F31188BFF34F8FBFF36F8F27
:101FD00000BF03480068401C0149086070470000CA
:101FE0007400002006480068401E05490860084645
:101FF000006820B9002080F3118800BF00BF70473F
:102000007400002070B506463546E6B1083D2C4602
:102010006068C00FB8B12068A8B9606820F00040BF
:10202000606000F061F90849606809680844064981
:1020300008602046FFF74EFD04480068401C034935
:10204000086000F06DFC70BD84000020900000204E
:1020500000204FF0E02108618861024848610720B4
:10206000086170473F1901002DE9F04105460E4611
:1020700017462C46FFF7A4FF94F94400401C10B902
:10208000002084F8440094F94500401C10B9002059
:1020900084F84500FFF7A6FFA06B28B93A46314601
:1020A00004F1240000F0ACF82046FFF7D5FEBDE8AF
:1020B000F081000070B50446002544B100F014F929
:1020C00000212046FFF70CFB00F02AFC05463DB935
:1020D0004FF0805003490860BFF34F8FBFF36F8FFD
:1020E00070BD000004ED00E070B50546FFF768FF25
:1020F00015B92948006800E028460446201DFFF76E
:10210000FDFE78B9E06A00EB8000244951F8200018
:1021100040B994F82C100120884021490968814376
:102120001F480160A06A18B104F11800FFF7E6FE2D
:102130001C480068401C1B4908601748006884421E
:1021400009D1211D1848FFF72FFF18480068401CCF
:102150001649086006E016480068401E14490860E9
:10216000FFF712FEFFF73EFF0B480068844202D0E3
:102170002046FFF7EEFB0F48006858B1064800689C
:10218000844207D14FF080500B490860BFF34F8F56
:10219000BFF36F8F70BD000020000020A41000204E
:1021A000380000204C000020441100202C000020AA
:1021B000300000203C00002004ED00E003490968E5
:1021C0000160034909684160704700004800002031
:1021D00034000020012001490860704744000020BD
:1021E00070B505460C460548016818312846FFF7CA
:1021F000C1FE01212046FFF773FA70BD20000020C8
:1022000070B504460E46154660680F490968C861F6
:102210000D49826809680A620B49096818318268A9
:1022200051600949096818318160074909688C6261
:102230002168491C21600DB14FF0FF362946304618
:10224000FFF74EFA70BD00002000002010B586B0E8
:1022500000200590049003AA04A905A8FFF762FED8
:102260000022DDE904101346CDE90021029016A1F9
:102270001748039A00F0C6F9164908600846006836
:1022800008B1012400E00024012C02D100F0F6FB8B
:102290000446012C14D100BFBF2080F31188BFF386
:1022A0004F8FBFF36F8F00BF4FF0FF300A490860B8
:1022B00001200A49086000200949086000F04CF834
:1022C0000848006806B010BD49444C4500000000B5
:1022D000A519000854000020500000203C000020F8
:1022E000340000205800002002480068401C0149CA
:1022F000086070475C0000201248006818B1012097
:10230000114908601DE000200F4908600F4800686F
:10231000B0FA80F0C0F11F0101EB81020C4B03EB1E
:10232000820042685268426000F1080243689342AA
:1023300002D14268526842604268D268054B1A6016
:1023400000BF70475C0000204400002038000020DF
:10235000A41000202000002010B50A48006840F4B6
:102360007F00084908600846006840F07F40086028
:10237000FFF76EFE002004490860FDF717FF0020FC
:1023800010BD000020ED00E07400002010B500BF7B
:10239000BF2080F31188BFF34F8FBFF36F8F00BF53
:1023A00000F072F918B14FF080500449086000BF86
:1023B000002080F3118800BF10BD000004ED00E094
:1023C0002DE9F84380460D4616461C46DDF8209060
:1023D0000027B8F1000F0FD074B106B165B106B98E
:1023E00055B92746012087F846004B463246294614
:1023F00040460097FFF7EAFA3846BDE8F883000048
:102400002DE9F04105460E4601272C46002C41D00F
:10241000E06B00283ED0B91EE06BB1FBF0F0216C00
:10242000884237D3FFF7CCFDD4E90F12206801FBB7
:102430000200A0600020A06320686060E06B401E86
:10244000226C216800FB0211E160FF2084F8440047
:1024500084F845009EB9206908B9012000E00020F9
:10246000A8B904F1100000F0D7F980B14FF0805006
:102470000A490860BFF34F8FBFF36F8F07E004F185
:102480001000FFF767FD04F12400FFF763FDFFF77D
:10249000A9FD00E000273846BDE8F08104ED00E02A
:1024A0002DE9F74183B005460F464FF000082C4652
:1024B00000BFFFF785FDA66BF6B139462046FFF752
:1024C00033FA701EA063206908B9012000E00020E3
:1024D00060B904F1100000F09FF938B14FF080505E
:1024E0002F490860BFF34F8FBFF36F8FFFF77AFD5F
:1024F000012006B0BDE8F081059818B9FFF772FD1C
:102500000020F6E7B8F1000F04D101A8FFF756FE4E
:102510004FF00108FFF766FDFFF7E6FEFFF750FDFD
:1025200094F94400401C10B9002084F8440094F948
:102530004500401C10B9002084F84500FFF752FD0B
:1025400005A901A800F02EF8F0B92046FFF722FBFC
:10255000A0B104F124000599FFF742FE2046FFF7E1
:102560007BFC00F0DDF90028A3D14FF080500C492E
:102570000860BFF34F8FBFF36F8F9AE72046FFF7D6
:102580006BFC00F0CDF994E72046FFF765FC00F006
:10259000C7F92046FFF7FEFA00288AD00020A8E7F6
:1025A00004ED00E070B506460C46FFF709FD134840
:1025B00002687068131A2068401C08B9002519E0E9
:1025C0000F4930680968884206D07068904203D885
:1025D0000125002020600DE02068984207D920687E
:1025E000C01A20603046FFF7E9FD002502E0002018
:1025F00020600125FFF7F6FC284670BD340000205E
:10260000480000202DE9F04F85B0074688469146E6
:102610009A46DDE90EB6109CCCB1C6B125464C21D8
:102620002846FDF762FE2E63022085F8490000204F
:1026300004A953464A46CDE900B1CDE902504146CE
:102640003846FFF7D6F92846FFF7AAF801E0002040
:102650000490049805B0BDE8F08F000005490968B2
:1026600009B9012005E00449096809B9022000E020
:10267000002070473C0000205C00002001490868F1
:1026800070470000340000202DE9F0410027574832
:10269000006800287ED156480068451C54480560F3
:1026A0008DB95448D0F800805348006851490860FB
:1026B0005148C0F8008051480068401C4F490860EC
:1026C000FFF762FB00BF4E480068854276D300BF2B
:1026D00048480068006808B9012000E0002020B1E7
:1026E0004FF0FF304649086067E042480068C06824
:1026F000C4686668B54202D2414806605DE0606920
:10270000D4E902128A60D4E902214A60211D42689C
:102710008A4201D1E1684160002262610168491E7C
:102720000160A06A98B1A06AD4E907128A60D4E96E
:1027300007214A6004F1180142688A4201D1216AE6
:1027400041600022A2620168491E016000BF94F846
:102750002C10012088402B4909680843294908604A
:10276000E16A01EB8101284A02EB81014868A0601F
:102770008268E260211D826851608160E16A01EB3C
:102780008101214A02EB81026261E16A01EB810170
:102790001D4A00E022E052F82110491CE26A02EBD7
:1027A0008202194B43F822101849E06A0968C96A85
:1027B00088428DD901278BE700E000BF13480068ED
:1027C000C06A00EB8000104951F82000012800D9B0
:1027D00001270F48006800B1012704E00D48006898
:1027E000401C0C4908603846BDE8F0815C000020C0
:1027F0003400002024000020280000204800002091
:102800005000002038000020A410002020000020EC
:10281000440000204000002070B50346D868C1681D
:10282000886AD1E90745A560D1E90754656001F1DF
:1028300018044568A54201D10C6A446000258D62E8
:102840000468641E04603048006800283DD148696F
:10285000D1E90245A560D1E9025465600C1D4568C7
:10286000A54201D1CC68446000254D610468641E16
:10287000046091F82C400120A040244C246820439F
:10288000224C2060CC6A04EB8404214D05EB8404C7
:10289000606888608568CD600C1D85686C608460A8
:1028A000CC6A04EB84041A4D05EB84054D61CC6AB7
:1028B00004EB8404164D55F82440641CCD6A05EBE6
:1028C0008505134E46F8254010E0124C6068C8613B
:1028D00085680D6201F1180485686C6084600D4D97
:1028E0008D622C462468641C2C6000BF0A4CC86AA8
:1028F0002468E46AA04204D901220120074C206028
:1029000000E00022104670BD5C000020380000206E
:10291000A4100020301100202000002044000020DE
:1029200070B500240026FFF74BFB4B480068401EA3
:10293000494908600846006800287DD1474800687A
:10294000002879D05BE04648C068C468A06AD4E932
:1029500007128A60D4E907214A6004F1180142682D
:102960008A4201D1216A41600022A2620168491EA7
:1029700001606069D4E902128A60D4E902214A60E8
:10298000211D42688A4201D1E168416000226261F2
:102990000168491E016094F82C10012088403149DB
:1029A000096808432F490860E16A01EB81012E4A5A
:1029B00002EB81014868A0608268E260211D8268A4
:1029C00051608160E16A01EB8101274A02EB8102DB
:1029D0006261E16A01EB8101234A52F82110491C2E
:1029E000E26A02EB8202204B43F822101F49E06AA0
:1029F0000968C96A884202D301201D490860184845
:102A0000006808B9012000E0002000289BD00CB12C
:102A1000FFF7BAF91748056865B100BFFFF734FE44
:102A200010B10120124908606D1E002DF6D1002062
:102A3000104908600E4800E009E0006838B101263E
:102A400030070D490860BFF34F8FBFF36F8FFFF75B
:102A5000C9FA304670BD00005C0000203000002044
:102A60003011002038000020A41000202000002099
:102A7000440000204000002004ED00E010B586B0C6
:102A80000024FEF7FFFE10480068D0B1002005903A
:102A9000049003AA04A905A8FFF750FA0422DDE96F
:102AA00004100023CDE90021029008A10948039AEF
:102AB000FFF7A8FD084908600846006800B1012436
:102AC00000BF204606B010BD68000020546D722083
:102AD000537663003F1E00086C00002002030405CB
:102AE000060708090A0B0C0D0E0F1010010200005A
:102AF00000000000000001020304060708090000AE
:102B00000000010203040000282B00080000002040
:102B10009400000028010008BC2B0008940000204D
:102B2000E41700004401000800000000000000005D
:102B30000000000000000000000000001000000085
:102B4000010000000024F40000000000000000006C
:102B50000000000000000000000000000000000075
:102B60000000000000000000000000000000000065
:102B70000000000000000000000000000000000055
:102B80000400000000000000000000000000000041
:102B9000000000000000000000000000AAAAAAAA8D
:102BA0000000000000000000000000000000000025
:0C2BB00000000000000000000000000019
:04000005080000ED02
:00000001FF
